{
  "_format": "hh-sol-artifact-1",
  "contractName": "Betting",
  "sourceName": "contracts/Betting.sol",
  "abi": [
    {
      "inputs": [],
      "stateMutability": "nonpayable",
      "type": "constructor"
    },
    {
      "anonymous": false,
      "inputs": [
        {
          "indexed": false,
          "internalType": "uint256",
          "name": "i",
          "type": "uint256"
        }
      ],
      "name": "Debugging",
      "type": "event"
    },
    {
      "inputs": [
        {
          "internalType": "uint256",
          "name": "betId",
          "type": "uint256"
        }
      ],
      "name": "betExists",
      "outputs": [
        {
          "internalType": "bool",
          "name": "",
          "type": "bool"
        }
      ],
      "stateMutability": "view",
      "type": "function"
    },
    {
      "inputs": [
        {
          "internalType": "uint256",
          "name": "betId",
          "type": "uint256"
        }
      ],
      "name": "closeBet",
      "outputs": [],
      "stateMutability": "payable",
      "type": "function"
    },
    {
      "inputs": [
        {
          "internalType": "string",
          "name": "_name",
          "type": "string"
        },
        {
          "internalType": "string",
          "name": "_side1",
          "type": "string"
        },
        {
          "internalType": "string",
          "name": "_side2",
          "type": "string"
        }
      ],
      "name": "createBet",
      "outputs": [
        {
          "internalType": "uint256",
          "name": "",
          "type": "uint256"
        }
      ],
      "stateMutability": "nonpayable",
      "type": "function"
    },
    {
      "inputs": [
        {
          "internalType": "uint256",
          "name": "betId",
          "type": "uint256"
        }
      ],
      "name": "getBetOwnerPrizes",
      "outputs": [
        {
          "components": [
            {
              "internalType": "address",
              "name": "userAddress",
              "type": "address"
            },
            {
              "internalType": "uint256",
              "name": "amount",
              "type": "uint256"
            }
          ],
          "internalType": "struct Betting.PrizeInfo[]",
          "name": "",
          "type": "tuple[]"
        }
      ],
      "stateMutability": "view",
      "type": "function"
    },
    {
      "inputs": [
        {
          "internalType": "uint256",
          "name": "betId",
          "type": "uint256"
        }
      ],
      "name": "getBetResult",
      "outputs": [
        {
          "internalType": "bool",
          "name": "",
          "type": "bool"
        }
      ],
      "stateMutability": "view",
      "type": "function"
    },
    {
      "inputs": [
        {
          "internalType": "uint256",
          "name": "betId",
          "type": "uint256"
        }
      ],
      "name": "getBettersPrizes",
      "outputs": [
        {
          "components": [
            {
              "internalType": "address",
              "name": "userAddress",
              "type": "address"
            },
            {
              "internalType": "uint256",
              "name": "amount",
              "type": "uint256"
            }
          ],
          "internalType": "struct Betting.PrizeInfo[]",
          "name": "",
          "type": "tuple[]"
        }
      ],
      "stateMutability": "view",
      "type": "function"
    },
    {
      "inputs": [],
      "name": "getClosedBets",
      "outputs": [
        {
          "components": [
            {
              "internalType": "string",
              "name": "name",
              "type": "string"
            },
            {
              "internalType": "string",
              "name": "side1",
              "type": "string"
            },
            {
              "internalType": "string",
              "name": "side2",
              "type": "string"
            },
            {
              "internalType": "uint256",
              "name": "amount",
              "type": "uint256"
            },
            {
              "internalType": "bool",
              "name": "isOpen",
              "type": "bool"
            },
            {
              "internalType": "bool",
              "name": "exists",
              "type": "bool"
            },
            {
              "internalType": "uint256",
              "name": "betId",
              "type": "uint256"
            },
            {
              "internalType": "address",
              "name": "owner",
              "type": "address"
            }
          ],
          "internalType": "struct Betting.Bet[]",
          "name": "",
          "type": "tuple[]"
        }
      ],
      "stateMutability": "view",
      "type": "function"
    },
    {
      "inputs": [],
      "name": "getNOfBets",
      "outputs": [
        {
          "internalType": "uint256",
          "name": "",
          "type": "uint256"
        }
      ],
      "stateMutability": "view",
      "type": "function"
    },
    {
      "inputs": [],
      "name": "getOpenBets",
      "outputs": [
        {
          "components": [
            {
              "internalType": "string",
              "name": "name",
              "type": "string"
            },
            {
              "internalType": "string",
              "name": "side1",
              "type": "string"
            },
            {
              "internalType": "string",
              "name": "side2",
              "type": "string"
            },
            {
              "internalType": "uint256",
              "name": "amount",
              "type": "uint256"
            },
            {
              "internalType": "bool",
              "name": "isOpen",
              "type": "bool"
            },
            {
              "internalType": "bool",
              "name": "exists",
              "type": "bool"
            },
            {
              "internalType": "uint256",
              "name": "betId",
              "type": "uint256"
            },
            {
              "internalType": "address",
              "name": "owner",
              "type": "address"
            }
          ],
          "internalType": "struct Betting.Bet[]",
          "name": "",
          "type": "tuple[]"
        }
      ],
      "stateMutability": "view",
      "type": "function"
    },
    {
      "inputs": [
        {
          "internalType": "uint256",
          "name": "betId",
          "type": "uint256"
        }
      ],
      "name": "getValidatorsPrizes",
      "outputs": [
        {
          "components": [
            {
              "internalType": "address",
              "name": "userAddress",
              "type": "address"
            },
            {
              "internalType": "uint256",
              "name": "amount",
              "type": "uint256"
            }
          ],
          "internalType": "struct Betting.PrizeInfo[]",
          "name": "",
          "type": "tuple[]"
        }
      ],
      "stateMutability": "view",
      "type": "function"
    },
    {
      "inputs": [
        {
          "internalType": "uint256",
          "name": "betId",
          "type": "uint256"
        },
        {
          "internalType": "bool",
          "name": "side",
          "type": "bool"
        }
      ],
      "name": "makeBet",
      "outputs": [],
      "stateMutability": "payable",
      "type": "function"
    },
    {
      "inputs": [],
      "name": "maxBet",
      "outputs": [
        {
          "internalType": "uint256",
          "name": "",
          "type": "uint256"
        }
      ],
      "stateMutability": "view",
      "type": "function"
    },
    {
      "inputs": [],
      "name": "minBet",
      "outputs": [
        {
          "internalType": "uint256",
          "name": "",
          "type": "uint256"
        }
      ],
      "stateMutability": "view",
      "type": "function"
    },
    {
      "inputs": [
        {
          "internalType": "uint256",
          "name": "betId",
          "type": "uint256"
        },
        {
          "internalType": "bool",
          "name": "side",
          "type": "bool"
        }
      ],
      "name": "subscribeAsValidator",
      "outputs": [],
      "stateMutability": "payable",
      "type": "function"
    }
  ],
  "bytecode": "0x60806040523480156200001157600080fd5b50655af3107a4000600081905550600054612710620000319190620000d7565b600181905550600060028190555060006003819055506000600481905550600060058190555033600660006101000a81548173ffffffffffffffffffffffffffffffffffffffff021916908373ffffffffffffffffffffffffffffffffffffffff16021790555062000122565b6000819050919050565b7f4e487b7100000000000000000000000000000000000000000000000000000000600052601160045260246000fd5b6000620000e4826200009e565b9150620000f1836200009e565b925082820262000101816200009e565b915082820484148315176200011b576200011a620000a8565b5b5092915050565b612d2680620001326000396000f3fe6080604052600436106100dd5760003560e01c806358a93bea1161007f57806392a2bfe31161005957806392a2bfe3146102cc5780639619367d14610309578063a24beff714610334578063b42b308314610350576100dd565b806358a93bea1461022757806369edb172146102525780636e757e5f1461028f576100dd565b80632093beb9116100bb5780632093beb9146101785780632e5b2168146101945780633eb62ceb146101bf5780634b95d20f146101fc576100dd565b80630ce7bdea146100e2578063117fc16b1461011f5780631a9f52d41461013b575b600080fd5b3480156100ee57600080fd5b5061010960048036038101906101049190611f76565b61037b565b6040516101169190612036565b60405180910390f35b610139600480360381019061013491906120b5565b61055b565b005b34801561014757600080fd5b50610162600480360381019061015d91906120f5565b610706565b60405161016f9190612250565b60405180910390f35b610192600480360381019061018d91906120b5565b610a56565b005b3480156101a057600080fd5b506101a9610c37565b6040516101b69190612036565b60405180910390f35b3480156101cb57600080fd5b506101e660048036038101906101e191906120f5565b610c3d565b6040516101f39190612281565b60405180910390f35b34801561020857600080fd5b50610211610c6a565b60405161021e9190612036565b60405180910390f35b34801561023357600080fd5b5061023c610c74565b60405161024991906124aa565b60405180910390f35b34801561025e57600080fd5b50610279600480360381019061027491906120f5565b610fcc565b6040516102869190612250565b60405180910390f35b34801561029b57600080fd5b506102b660048036038101906102b191906120f5565b61131c565b6040516102c39190612250565b60405180910390f35b3480156102d857600080fd5b506102f360048036038101906102ee91906120f5565b611438565b6040516103009190612281565b60405180910390f35b34801561031557600080fd5b5061031e611571565b60405161032b9190612036565b60405180910390f35b61034e600480360381019061034991906120f5565b611577565b005b34801561035c57600080fd5b50610365611a35565b60405161037291906124aa565b60405180910390f35b600060026000815480929190610390906124fb565b91905055506040518061010001604052808581526020018481526020018381526020016000815260200160011515815260200160011515815260200160025481526020013373ffffffffffffffffffffffffffffffffffffffff168152506007600060025481526020019081526020016000206000820151816000019081610418919061274f565b50602082015181600101908161042e919061274f565b506040820151816002019081610444919061274f565b506060820151816003015560808201518160040160006101000a81548160ff02191690831515021790555060a08201518160040160016101000a81548160ff02191690831515021790555060c0820151816005015560e08201518160060160006101000a81548173ffffffffffffffffffffffffffffffffffffffff021916908373ffffffffffffffffffffffffffffffffffffffff1602179055509050503360086000600254815260200190815260200160002060006101000a81548173ffffffffffffffffffffffffffffffffffffffff021916908373ffffffffffffffffffffffffffffffffffffffff1602179055506003600081548092919061054a906124fb565b919050555060025490509392505050565b3073ffffffffffffffffffffffffffffffffffffffff16633eb62ceb836040518263ffffffff1660e01b81526004016105949190612036565b602060405180830381865afa1580156105b1573d6000803e3d6000fd5b505050506040513d601f19601f820116820180604052508101906105d59190612836565b6105de57600080fd5b6000543410156105ed57600080fd5b600060405180606001604052803373ffffffffffffffffffffffffffffffffffffffff1681526020013481526020018315158152509050600a600084815260200190815260200160002081908060018154018082558091505060019003906000526020600020906003020160009091909190915060008201518160000160006101000a81548173ffffffffffffffffffffffffffffffffffffffff021916908373ffffffffffffffffffffffffffffffffffffffff1602179055506020820151816001015560408201518160020160006101000a81548160ff0219169083151502179055505050346007600085815260200190815260200160002060030160008282546106fa9190612863565b92505081905550505050565b6060600061071383611438565b905060006064600a600760008781526020019081526020016000206003015461073c9190612897565b6107469190612908565b905060008060005b600a60008881526020019081526020016000208054905081101561086d576000600a6000898152602001908152602001600020828154811061079357610792612939565b5b90600052602060002090600302016040518060600160405290816000820160009054906101000a900473ffffffffffffffffffffffffffffffffffffffff1673ffffffffffffffffffffffffffffffffffffffff1673ffffffffffffffffffffffffffffffffffffffff168152602001600182015481526020016002820160009054906101000a900460ff16151515158152505090508515158160400151151503610859578060200151846108489190612863565b93508280610855906124fb565b9350505b508080610865906124fb565b91505061074e565b5060008167ffffffffffffffff81111561088a57610889611e4b565b5b6040519080825280602002602001820160405280156108c357816020015b6108b0611d8d565b8152602001906001900390816108a85790505b5090506000805b600a60008a815260200190815260200160002080549050811080156108ee57508382105b15610a47576000600a60008b8152602001908152602001600020828154811061091a57610919612939565b5b90600052602060002090600302016040518060600160405290816000820160009054906101000a900473ffffffffffffffffffffffffffffffffffffffff1673ffffffffffffffffffffffffffffffffffffffff1673ffffffffffffffffffffffffffffffffffffffff168152602001600182015481526020016002820160009054906101000a900460ff16151515158152505090508715158160400151151503610a33576040518060400160405280826000015173ffffffffffffffffffffffffffffffffffffffff1681526020018783602001518a6109fb9190612897565b610a059190612908565b815250848480610a14906124fb565b955081518110610a2757610a26612939565b5b60200260200101819052505b508080610a3f906124fb565b9150506108ca565b50819650505050505050919050565b3073ffffffffffffffffffffffffffffffffffffffff16633eb62ceb836040518263ffffffff1660e01b8152600401610a8f9190612036565b602060405180830381865afa158015610aac573d6000803e3d6000fd5b505050506040513d601f19601f82011682018060405250810190610ad09190612836565b610ad957600080fd5b600054341015610b1e576040517f08c379a0000000000000000000000000000000000000000000000000000000008152600401610b15906129c5565b60405180910390fd5b600060405180606001604052803373ffffffffffffffffffffffffffffffffffffffff16815260200134815260200183151581525090506009600084815260200190815260200160002081908060018154018082558091505060019003906000526020600020906003020160009091909190915060008201518160000160006101000a81548173ffffffffffffffffffffffffffffffffffffffff021916908373ffffffffffffffffffffffffffffffffffffffff1602179055506020820151816001015560408201518160020160006101000a81548160ff021916908315150217905550505034600760008581526020019081526020016000206003016000828254610c2b9190612863565b92505081905550505050565b60015481565b60006007600083815260200190815260200160002060040160019054906101000a900460ff169050919050565b6000600254905090565b6060600060035467ffffffffffffffff811115610c9457610c93611e4b565b5b604051908082528060200260200182016040528015610ccd57816020015b610cba611dbd565b815260200190600190039081610cb25790505b509050600080600190505b6002548111610fc357600115156007600083815260200190815260200160002060040160009054906101000a900460ff16151503610fb0576007600082815260200190815260200160002060405180610100016040529081600082018054610d3f90612572565b80601f0160208091040260200160405190810160405280929190818152602001828054610d6b90612572565b8015610db85780601f10610d8d57610100808354040283529160200191610db8565b820191906000526020600020905b815481529060010190602001808311610d9b57829003601f168201915b50505050508152602001600182018054610dd190612572565b80601f0160208091040260200160405190810160405280929190818152602001828054610dfd90612572565b8015610e4a5780601f10610e1f57610100808354040283529160200191610e4a565b820191906000526020600020905b815481529060010190602001808311610e2d57829003601f168201915b50505050508152602001600282018054610e6390612572565b80601f0160208091040260200160405190810160405280929190818152602001828054610e8f90612572565b8015610edc5780601f10610eb157610100808354040283529160200191610edc565b820191906000526020600020905b815481529060010190602001808311610ebf57829003601f168201915b50505050508152602001600382015481526020016004820160009054906101000a900460ff161515151581526020016004820160019054906101000a900460ff16151515158152602001600582015481526020016006820160009054906101000a900473ffffffffffffffffffffffffffffffffffffffff1673ffffffffffffffffffffffffffffffffffffffff1673ffffffffffffffffffffffffffffffffffffffff1681525050838380610f91906124fb565b945081518110610fa457610fa3612939565b5b60200260200101819052505b8080610fbb906124fb565b915050610cd8565b50819250505090565b60606000610fd983611438565b905060006064603260076000878152602001908152602001600020600301546110029190612897565b61100c9190612908565b905060008060005b600960008881526020019081526020016000208054905081101561113357600060096000898152602001908152602001600020828154811061105957611058612939565b5b90600052602060002090600302016040518060600160405290816000820160009054906101000a900473ffffffffffffffffffffffffffffffffffffffff1673ffffffffffffffffffffffffffffffffffffffff1673ffffffffffffffffffffffffffffffffffffffff168152602001600182015481526020016002820160009054906101000a900460ff1615151515815250509050851515816040015115150361111f5780602001518461110e9190612863565b9350828061111b906124fb565b9350505b50808061112b906124fb565b915050611014565b5060008167ffffffffffffffff8111156111505761114f611e4b565b5b60405190808252806020026020018201604052801561118957816020015b611176611d8d565b81526020019060019003908161116e5790505b5090506000805b600960008a815260200190815260200160002080549050811080156111b457508382105b1561130d576000600960008b815260200190815260200160002082815481106111e0576111df612939565b5b90600052602060002090600302016040518060600160405290816000820160009054906101000a900473ffffffffffffffffffffffffffffffffffffffff1673ffffffffffffffffffffffffffffffffffffffff1673ffffffffffffffffffffffffffffffffffffffff168152602001600182015481526020016002820160009054906101000a900460ff161515151581525050905087151581604001511515036112f9576040518060400160405280826000015173ffffffffffffffffffffffffffffffffffffffff1681526020018783602001518a6112c19190612897565b6112cb9190612908565b8152508484806112da906124fb565b9550815181106112ed576112ec612939565b5b60200260200101819052505b508080611305906124fb565b915050611190565b50819650505050505050919050565b60606000600167ffffffffffffffff81111561133b5761133a611e4b565b5b60405190808252806020026020018201604052801561137457816020015b611361611d8d565b8152602001906001900390816113595790505b50905060006103e86005600760008781526020019081526020016000206003015461139f9190612897565b6113a99190612908565b905060006008600086815260200190815260200160002060009054906101000a900473ffffffffffffffffffffffffffffffffffffffff16905060405180604001604052808273ffffffffffffffffffffffffffffffffffffffff168152602001838152508360008151811061142257611421612939565b5b6020026020010181905250829350505050919050565b600080600090506000805b600960008681526020019081526020016000208054905081101561156457600060096000878152602001908152602001600020828154811061148857611487612939565b5b90600052602060002090600302016040518060600160405290816000820160009054906101000a900473ffffffffffffffffffffffffffffffffffffffff1673ffffffffffffffffffffffffffffffffffffffff1673ffffffffffffffffffffffffffffffffffffffff168152602001600182015481526020016002820160009054906101000a900460ff1615151515815250509050600015158160400151151503611541578380611539906124fb565b945050611550565b828061154c906124fb565b9350505b50808061155c906124fb565b915050611443565b5081811192505050919050565b60005481565b6008600082815260200190815260200160002060009054906101000a900473ffffffffffffffffffffffffffffffffffffffff1673ffffffffffffffffffffffffffffffffffffffff163373ffffffffffffffffffffffffffffffffffffffff1614611618576040517f08c379a000000000000000000000000000000000000000000000000000000000815260040161160f90612a31565b60405180910390fd5b600115156007600083815260200190815260200160002060040160009054906101000a900460ff16151514611682576040517f08c379a000000000000000000000000000000000000000000000000000000000815260040161167990612a9d565b60405180910390fd5b600061168d82610fcc565b9050600061169a83610706565b905060006116a78461131c565b6000815181106116ba576116b9612939565b5b6020026020010151905060006007600086815260200190815260200160002060030154905060008060005b86518110156117cb57600087828151811061170357611702612939565b5b602002602001015160000151905087828151811061172457611723612939565b5b60200260200101516020015193508073ffffffffffffffffffffffffffffffffffffffff166108fc859081150290604051600060405180830381858888f193505050509250826117a9576040517f08c379a00000000000000000000000000000000000000000000000000000000081526004016117a090612b09565b60405180910390fd5b83856117b59190612b29565b94505080806117c3906124fb565b9150506116e5565b5060005b85518110156118b55760008682815181106117ed576117ec612939565b5b602002602001015160000151905086828151811061180e5761180d612939565b5b60200260200101516020015193508073ffffffffffffffffffffffffffffffffffffffff166108fc859081150290604051600060405180830381858888f19350505050925082611893576040517f08c379a000000000000000000000000000000000000000000000000000000000815260040161188a90612ba9565b60405180910390fd5b838561189f9190612b29565b94505080806118ad906124fb565b9150506117cf565b50600084600001519050846020015192508073ffffffffffffffffffffffffffffffffffffffff166108fc849081150290604051600060405180830381858888f1935050505091508161193d576040517f08c379a000000000000000000000000000000000000000000000000000000000815260040161193490612c15565b60405180910390fd5b82846119499190612b29565b9350600660009054906101000a900473ffffffffffffffffffffffffffffffffffffffff1673ffffffffffffffffffffffffffffffffffffffff166108fc859081150290604051600060405180830381858888f193505050509150816119e4576040517f08c379a00000000000000000000000000000000000000000000000000000000081526004016119db90612ca7565b60405180910390fd5b6000600760008a815260200190815260200160002060040160006101000a81548160ff02191690831515021790555060036000815480929190611a2690612cc7565b91905055505050505050505050565b6060600060035467ffffffffffffffff811115611a5557611a54611e4b565b5b604051908082528060200260200182016040528015611a8e57816020015b611a7b611dbd565b815260200190600190039081611a735790505b509050600080600190505b6002548111611d8457600015156007600083815260200190815260200160002060040160009054906101000a900460ff16151503611d71576007600082815260200190815260200160002060405180610100016040529081600082018054611b0090612572565b80601f0160208091040260200160405190810160405280929190818152602001828054611b2c90612572565b8015611b795780601f10611b4e57610100808354040283529160200191611b79565b820191906000526020600020905b815481529060010190602001808311611b5c57829003601f168201915b50505050508152602001600182018054611b9290612572565b80601f0160208091040260200160405190810160405280929190818152602001828054611bbe90612572565b8015611c0b5780601f10611be057610100808354040283529160200191611c0b565b820191906000526020600020905b815481529060010190602001808311611bee57829003601f168201915b50505050508152602001600282018054611c2490612572565b80601f0160208091040260200160405190810160405280929190818152602001828054611c5090612572565b8015611c9d5780601f10611c7257610100808354040283529160200191611c9d565b820191906000526020600020905b815481529060010190602001808311611c8057829003601f168201915b50505050508152602001600382015481526020016004820160009054906101000a900460ff161515151581526020016004820160019054906101000a900460ff16151515158152602001600582015481526020016006820160009054906101000a900473ffffffffffffffffffffffffffffffffffffffff1673ffffffffffffffffffffffffffffffffffffffff1673ffffffffffffffffffffffffffffffffffffffff1681525050838380611d52906124fb565b945081518110611d6557611d64612939565b5b60200260200101819052505b8080611d7c906124fb565b915050611a99565b50819250505090565b6040518060400160405280600073ffffffffffffffffffffffffffffffffffffffff168152602001600081525090565b6040518061010001604052806060815260200160608152602001606081526020016000815260200160001515815260200160001515815260200160008152602001600073ffffffffffffffffffffffffffffffffffffffff1681525090565b6000604051905090565b600080fd5b600080fd5b600080fd5b600080fd5b6000601f19601f8301169050919050565b7f4e487b7100000000000000000000000000000000000000000000000000000000600052604160045260246000fd5b611e8382611e3a565b810181811067ffffffffffffffff82111715611ea257611ea1611e4b565b5b80604052505050565b6000611eb5611e1c565b9050611ec18282611e7a565b919050565b600067ffffffffffffffff821115611ee157611ee0611e4b565b5b611eea82611e3a565b9050602081019050919050565b82818337600083830152505050565b6000611f19611f1484611ec6565b611eab565b905082815260208101848484011115611f3557611f34611e35565b5b611f40848285611ef7565b509392505050565b600082601f830112611f5d57611f5c611e30565b5b8135611f6d848260208601611f06565b91505092915050565b600080600060608486031215611f8f57611f8e611e26565b5b600084013567ffffffffffffffff811115611fad57611fac611e2b565b5b611fb986828701611f48565b935050602084013567ffffffffffffffff811115611fda57611fd9611e2b565b5b611fe686828701611f48565b925050604084013567ffffffffffffffff81111561200757612006611e2b565b5b61201386828701611f48565b9150509250925092565b6000819050919050565b6120308161201d565b82525050565b600060208201905061204b6000830184612027565b92915050565b61205a8161201d565b811461206557600080fd5b50565b60008135905061207781612051565b92915050565b60008115159050919050565b6120928161207d565b811461209d57600080fd5b50565b6000813590506120af81612089565b92915050565b600080604083850312156120cc576120cb611e26565b5b60006120da85828601612068565b92505060206120eb858286016120a0565b9150509250929050565b60006020828403121561210b5761210a611e26565b5b600061211984828501612068565b91505092915050565b600081519050919050565b600082825260208201905092915050565b6000819050602082019050919050565b600073ffffffffffffffffffffffffffffffffffffffff82169050919050565b60006121798261214e565b9050919050565b6121898161216e565b82525050565b6121988161201d565b82525050565b6040820160008201516121b46000850182612180565b5060208201516121c7602085018261218f565b50505050565b60006121d9838361219e565b60408301905092915050565b6000602082019050919050565b60006121fd82612122565b612207818561212d565b93506122128361213e565b8060005b8381101561224357815161222a88826121cd565b9750612235836121e5565b925050600181019050612216565b5085935050505092915050565b6000602082019050818103600083015261226a81846121f2565b905092915050565b61227b8161207d565b82525050565b60006020820190506122966000830184612272565b92915050565b600081519050919050565b600082825260208201905092915050565b6000819050602082019050919050565b600081519050919050565b600082825260208201905092915050565b60005b838110156123025780820151818401526020810190506122e7565b60008484015250505050565b6000612319826122c8565b61232381856122d3565b93506123338185602086016122e4565b61233c81611e3a565b840191505092915050565b6123508161207d565b82525050565b6000610100830160008301518482036000860152612374828261230e565b9150506020830151848203602086015261238e828261230e565b915050604083015184820360408601526123a8828261230e565b91505060608301516123bd606086018261218f565b5060808301516123d06080860182612347565b5060a08301516123e360a0860182612347565b5060c08301516123f660c086018261218f565b5060e083015161240960e0860182612180565b508091505092915050565b60006124208383612356565b905092915050565b6000602082019050919050565b60006124408261229c565b61244a81856122a7565b93508360208202850161245c856122b8565b8060005b8581101561249857848403895281516124798582612414565b945061248483612428565b925060208a01995050600181019050612460565b50829750879550505050505092915050565b600060208201905081810360008301526124c48184612435565b905092915050565b7f4e487b7100000000000000000000000000000000000000000000000000000000600052601160045260246000fd5b60006125068261201d565b91507fffffffffffffffffffffffffffffffffffffffffffffffffffffffffffffffff8203612538576125376124cc565b5b600182019050919050565b7f4e487b7100000000000000000000000000000000000000000000000000000000600052602260045260246000fd5b6000600282049050600182168061258a57607f821691505b60208210810361259d5761259c612543565b5b50919050565b60008190508160005260206000209050919050565b60006020601f8301049050919050565b600082821b905092915050565b6000600883026126057fffffffffffffffffffffffffffffffffffffffffffffffffffffffffffffffff826125c8565b61260f86836125c8565b95508019841693508086168417925050509392505050565b6000819050919050565b600061264c6126476126428461201d565b612627565b61201d565b9050919050565b6000819050919050565b61266683612631565b61267a61267282612653565b8484546125d5565b825550505050565b600090565b61268f612682565b61269a81848461265d565b505050565b5b818110156126be576126b3600082612687565b6001810190506126a0565b5050565b601f821115612703576126d4816125a3565b6126dd846125b8565b810160208510156126ec578190505b6127006126f8856125b8565b83018261269f565b50505b505050565b600082821c905092915050565b600061272660001984600802612708565b1980831691505092915050565b600061273f8383612715565b9150826002028217905092915050565b612758826122c8565b67ffffffffffffffff81111561277157612770611e4b565b5b61277b8254612572565b6127868282856126c2565b600060209050601f8311600181146127b957600084156127a7578287015190505b6127b18582612733565b865550612819565b601f1984166127c7866125a3565b60005b828110156127ef578489015182556001820191506020850194506020810190506127ca565b8683101561280c5784890151612808601f891682612715565b8355505b6001600288020188555050505b505050505050565b60008151905061283081612089565b92915050565b60006020828403121561284c5761284b611e26565b5b600061285a84828501612821565b91505092915050565b600061286e8261201d565b91506128798361201d565b9250828201905080821115612891576128906124cc565b5b92915050565b60006128a28261201d565b91506128ad8361201d565b92508282026128bb8161201d565b915082820484148315176128d2576128d16124cc565b5b5092915050565b7f4e487b7100000000000000000000000000000000000000000000000000000000600052601260045260246000fd5b60006129138261201d565b915061291e8361201d565b92508261292e5761292d6128d9565b5b828204905092915050565b7f4e487b7100000000000000000000000000000000000000000000000000000000600052603260045260246000fd5b600082825260208201905092915050565b7f626574206973206e6f7420656e6f756768000000000000000000000000000000600082015250565b60006129af601183612968565b91506129ba82612979565b602082019050919050565b600060208201905081810360008301526129de816129a2565b9050919050565b7f6f776e6572000000000000000000000000000000000000000000000000000000600082015250565b6000612a1b600583612968565b9150612a26826129e5565b602082019050919050565b60006020820190508181036000830152612a4a81612a0e565b9050919050565b7f636c6f7365640000000000000000000000000000000000000000000000000000600082015250565b6000612a87600683612968565b9150612a9282612a51565b602082019050919050565b60006020820190508181036000830152612ab681612a7a565b9050919050565b7f7472616e73616374696f6e20746f20626574746572206661696c656400000000600082015250565b6000612af3601c83612968565b9150612afe82612abd565b602082019050919050565b60006020820190508181036000830152612b2281612ae6565b9050919050565b6000612b348261201d565b9150612b3f8361201d565b9250828203905081811115612b5757612b566124cc565b5b92915050565b7f7472616e73636174696f6e20746f2076616c696461746f72206661696c656400600082015250565b6000612b93601f83612968565b9150612b9e82612b5d565b602082019050919050565b60006020820190508181036000830152612bc281612b86565b9050919050565b7f7472616e73616374696f6e20746f206f776e6572206661696c65640000000000600082015250565b6000612bff601b83612968565b9150612c0a82612bc9565b602082019050919050565b60006020820190508181036000830152612c2e81612bf2565b9050919050565b7f7472616e73616374696f6e20746f20636f6e7472616374206f776e657220666160008201527f696c656400000000000000000000000000000000000000000000000000000000602082015250565b6000612c91602483612968565b9150612c9c82612c35565b604082019050919050565b60006020820190508181036000830152612cc081612c84565b9050919050565b6000612cd28261201d565b915060008203612ce557612ce46124cc565b5b60018203905091905056fea26469706673582212200175aaf09955b2a9aa312eb47657a1949858e19b82e489e9574a661906290a7064736f6c63430008130033",
  "linkReferences": {},
  "deployedLinkReferences": {}
}