{
  "_format": "hh-sol-artifact-1",
  "contractName": "Betting",
  "sourceName": "contracts/Betting.sol",
  "abi": [
    {
      "inputs": [],
      "stateMutability": "nonpayable",
      "type": "constructor"
    },
    {
      "anonymous": false,
      "inputs": [
        {
          "indexed": false,
          "internalType": "uint256",
          "name": "i",
          "type": "uint256"
        }
      ],
      "name": "Debugging",
      "type": "event"
    },
    {
      "inputs": [
        {
          "internalType": "uint256",
          "name": "betId",
          "type": "uint256"
        }
      ],
      "name": "betExists",
      "outputs": [
        {
          "internalType": "bool",
          "name": "",
          "type": "bool"
        }
      ],
      "stateMutability": "view",
      "type": "function"
    },
    {
      "inputs": [
        {
          "internalType": "uint256",
          "name": "betId",
          "type": "uint256"
        }
      ],
      "name": "closeBet",
      "outputs": [],
      "stateMutability": "payable",
      "type": "function"
    },
    {
      "inputs": [
        {
          "internalType": "string",
          "name": "_name",
          "type": "string"
        },
        {
          "internalType": "string",
          "name": "_side1",
          "type": "string"
        },
        {
          "internalType": "string",
          "name": "_side2",
          "type": "string"
        }
      ],
      "name": "createBet",
      "outputs": [
        {
          "internalType": "uint256",
          "name": "",
          "type": "uint256"
        }
      ],
      "stateMutability": "nonpayable",
      "type": "function"
    },
    {
      "inputs": [
        {
          "internalType": "uint256",
          "name": "betId",
          "type": "uint256"
        }
      ],
      "name": "getBetOwnerPrizes",
      "outputs": [
        {
          "components": [
            {
              "internalType": "address",
              "name": "userAddress",
              "type": "address"
            },
            {
              "internalType": "uint256",
              "name": "amount",
              "type": "uint256"
            }
          ],
          "internalType": "struct Betting.PrizeInfo[]",
          "name": "",
          "type": "tuple[]"
        }
      ],
      "stateMutability": "view",
      "type": "function"
    },
    {
      "inputs": [
        {
          "internalType": "uint256",
          "name": "betId",
          "type": "uint256"
        }
      ],
      "name": "getBetResult",
      "outputs": [
        {
          "internalType": "bool",
          "name": "",
          "type": "bool"
        }
      ],
      "stateMutability": "view",
      "type": "function"
    },
    {
      "inputs": [
        {
          "internalType": "uint256",
          "name": "betId",
          "type": "uint256"
        }
      ],
      "name": "getBettersPrizes",
      "outputs": [
        {
          "components": [
            {
              "internalType": "address",
              "name": "userAddress",
              "type": "address"
            },
            {
              "internalType": "uint256",
              "name": "amount",
              "type": "uint256"
            }
          ],
          "internalType": "struct Betting.PrizeInfo[]",
          "name": "",
          "type": "tuple[]"
        }
      ],
      "stateMutability": "view",
      "type": "function"
    },
    {
      "inputs": [],
      "name": "getClosedBets",
      "outputs": [
        {
          "components": [
            {
              "internalType": "string",
              "name": "name",
              "type": "string"
            },
            {
              "internalType": "string",
              "name": "side1",
              "type": "string"
            },
            {
              "internalType": "string",
              "name": "side2",
              "type": "string"
            },
            {
              "internalType": "uint256",
              "name": "amount",
              "type": "uint256"
            },
            {
              "internalType": "bool",
              "name": "isOpen",
              "type": "bool"
            },
            {
              "internalType": "bool",
              "name": "exists",
              "type": "bool"
            },
            {
              "internalType": "uint256",
              "name": "betId",
              "type": "uint256"
            }
          ],
          "internalType": "struct Betting.Bet[]",
          "name": "",
          "type": "tuple[]"
        }
      ],
      "stateMutability": "view",
      "type": "function"
    },
    {
      "inputs": [],
      "name": "getNOfBets",
      "outputs": [
        {
          "internalType": "uint256",
          "name": "",
          "type": "uint256"
        }
      ],
      "stateMutability": "view",
      "type": "function"
    },
    {
      "inputs": [],
      "name": "getOpenBets",
      "outputs": [
        {
          "components": [
            {
              "internalType": "string",
              "name": "name",
              "type": "string"
            },
            {
              "internalType": "string",
              "name": "side1",
              "type": "string"
            },
            {
              "internalType": "string",
              "name": "side2",
              "type": "string"
            },
            {
              "internalType": "uint256",
              "name": "amount",
              "type": "uint256"
            },
            {
              "internalType": "bool",
              "name": "isOpen",
              "type": "bool"
            },
            {
              "internalType": "bool",
              "name": "exists",
              "type": "bool"
            },
            {
              "internalType": "uint256",
              "name": "betId",
              "type": "uint256"
            }
          ],
          "internalType": "struct Betting.Bet[]",
          "name": "",
          "type": "tuple[]"
        }
      ],
      "stateMutability": "view",
      "type": "function"
    },
    {
      "inputs": [
        {
          "internalType": "uint256",
          "name": "betId",
          "type": "uint256"
        }
      ],
      "name": "getValidatorsPrizes",
      "outputs": [
        {
          "components": [
            {
              "internalType": "address",
              "name": "userAddress",
              "type": "address"
            },
            {
              "internalType": "uint256",
              "name": "amount",
              "type": "uint256"
            }
          ],
          "internalType": "struct Betting.PrizeInfo[]",
          "name": "",
          "type": "tuple[]"
        }
      ],
      "stateMutability": "view",
      "type": "function"
    },
    {
      "inputs": [
        {
          "internalType": "uint256",
          "name": "betId",
          "type": "uint256"
        },
        {
          "internalType": "bool",
          "name": "side",
          "type": "bool"
        }
      ],
      "name": "makeBet",
      "outputs": [],
      "stateMutability": "payable",
      "type": "function"
    },
    {
      "inputs": [],
      "name": "maxBet",
      "outputs": [
        {
          "internalType": "uint256",
          "name": "",
          "type": "uint256"
        }
      ],
      "stateMutability": "view",
      "type": "function"
    },
    {
      "inputs": [],
      "name": "minBet",
      "outputs": [
        {
          "internalType": "uint256",
          "name": "",
          "type": "uint256"
        }
      ],
      "stateMutability": "view",
      "type": "function"
    },
    {
      "inputs": [
        {
          "internalType": "uint256",
          "name": "betId",
          "type": "uint256"
        },
        {
          "internalType": "bool",
          "name": "side",
          "type": "bool"
        }
      ],
      "name": "subscribeAsValidator",
      "outputs": [],
      "stateMutability": "payable",
      "type": "function"
    }
  ],
  "bytecode": "0x60806040523480156200001157600080fd5b50655af3107a4000600081905550600054612710620000319190620000d7565b600181905550600060028190555060006003819055506000600481905550600060058190555033600660006101000a81548173ffffffffffffffffffffffffffffffffffffffff021916908373ffffffffffffffffffffffffffffffffffffffff16021790555062000122565b6000819050919050565b7f4e487b7100000000000000000000000000000000000000000000000000000000600052601160045260246000fd5b6000620000e4826200009e565b9150620000f1836200009e565b925082820262000101816200009e565b915082820484148315176200011b576200011a620000a8565b5b5092915050565b612b4080620001326000396000f3fe6080604052600436106100dd5760003560e01c806358a93bea1161007f57806392a2bfe31161005957806392a2bfe3146102cc5780639619367d14610309578063a24beff714610334578063b42b308314610350576100dd565b806358a93bea1461022757806369edb172146102525780636e757e5f1461028f576100dd565b80632093beb9116100bb5780632093beb9146101785780632e5b2168146101945780633eb62ceb146101bf5780634b95d20f146101fc576100dd565b80630ce7bdea146100e2578063117fc16b1461011f5780631a9f52d41461013b575b600080fd5b3480156100ee57600080fd5b5061010960048036038101906101049190611e10565b61037b565b6040516101169190611ed0565b60405180910390f35b61013960048036038101906101349190611f4f565b6104f7565b005b34801561014757600080fd5b50610162600480360381019061015d9190611f8f565b6106a2565b60405161016f91906120ea565b60405180910390f35b610192600480360381019061018d9190611f4f565b6109f2565b005b3480156101a057600080fd5b506101a9610b9d565b6040516101b69190611ed0565b60405180910390f35b3480156101cb57600080fd5b506101e660048036038101906101e19190611f8f565b610ba3565b6040516101f3919061211b565b60405180910390f35b34801561020857600080fd5b50610211610bd0565b60405161021e9190611ed0565b60405180910390f35b34801561023357600080fd5b5061023c610bda565b6040516102499190612330565b60405180910390f35b34801561025e57600080fd5b5061027960048036038101906102749190611f8f565b610edb565b60405161028691906120ea565b60405180910390f35b34801561029b57600080fd5b506102b660048036038101906102b19190611f8f565b61122b565b6040516102c391906120ea565b60405180910390f35b3480156102d857600080fd5b506102f360048036038101906102ee9190611f8f565b611347565b604051610300919061211b565b60405180910390f35b34801561031557600080fd5b5061031e611480565b60405161032b9190611ed0565b60405180910390f35b61034e60048036038101906103499190611f8f565b611486565b005b34801561035c57600080fd5b50610365611944565b6040516103729190612330565b60405180910390f35b60006002600081548092919061039090612381565b91905055506040518060e001604052808581526020018481526020018381526020016000815260200160011515815260200160011515815260200160025481525060076000600254815260200190815260200160002060008201518160000190816103fb91906125d5565b50602082015181600101908161041191906125d5565b50604082015181600201908161042791906125d5565b506060820151816003015560808201518160040160006101000a81548160ff02191690831515021790555060a08201518160040160016101000a81548160ff02191690831515021790555060c082015181600501559050503360086000600254815260200190815260200160002060006101000a81548173ffffffffffffffffffffffffffffffffffffffff021916908373ffffffffffffffffffffffffffffffffffffffff160217905550600360008154809291906104e690612381565b919050555060025490509392505050565b3073ffffffffffffffffffffffffffffffffffffffff16633eb62ceb836040518263ffffffff1660e01b81526004016105309190611ed0565b602060405180830381865afa15801561054d573d6000803e3d6000fd5b505050506040513d601f19601f8201168201806040525081019061057191906126bc565b61057a57600080fd5b60005434101561058957600080fd5b600060405180606001604052803373ffffffffffffffffffffffffffffffffffffffff1681526020013481526020018315158152509050600a600084815260200190815260200160002081908060018154018082558091505060019003906000526020600020906003020160009091909190915060008201518160000160006101000a81548173ffffffffffffffffffffffffffffffffffffffff021916908373ffffffffffffffffffffffffffffffffffffffff1602179055506020820151816001015560408201518160020160006101000a81548160ff02191690831515021790555050503460076000858152602001908152602001600020600301600082825461069691906126e9565b92505081905550505050565b606060006106af83611347565b905060006064600a60076000878152602001908152602001600020600301546106d8919061271d565b6106e2919061278e565b905060008060005b600a600088815260200190815260200160002080549050811015610809576000600a6000898152602001908152602001600020828154811061072f5761072e6127bf565b5b90600052602060002090600302016040518060600160405290816000820160009054906101000a900473ffffffffffffffffffffffffffffffffffffffff1673ffffffffffffffffffffffffffffffffffffffff1673ffffffffffffffffffffffffffffffffffffffff168152602001600182015481526020016002820160009054906101000a900460ff161515151581525050905085151581604001511515036107f5578060200151846107e491906126e9565b935082806107f190612381565b9350505b50808061080190612381565b9150506106ea565b5060008167ffffffffffffffff81111561082657610825611ce5565b5b60405190808252806020026020018201604052801561085f57816020015b61084c611c45565b8152602001906001900390816108445790505b5090506000805b600a60008a8152602001908152602001600020805490508110801561088a57508382105b156109e3576000600a60008b815260200190815260200160002082815481106108b6576108b56127bf565b5b90600052602060002090600302016040518060600160405290816000820160009054906101000a900473ffffffffffffffffffffffffffffffffffffffff1673ffffffffffffffffffffffffffffffffffffffff1673ffffffffffffffffffffffffffffffffffffffff168152602001600182015481526020016002820160009054906101000a900460ff161515151581525050905087151581604001511515036109cf576040518060400160405280826000015173ffffffffffffffffffffffffffffffffffffffff1681526020018783602001518a610997919061271d565b6109a1919061278e565b8152508484806109b090612381565b9550815181106109c3576109c26127bf565b5b60200260200101819052505b5080806109db90612381565b915050610866565b50819650505050505050919050565b3073ffffffffffffffffffffffffffffffffffffffff16633eb62ceb836040518263ffffffff1660e01b8152600401610a2b9190611ed0565b602060405180830381865afa158015610a48573d6000803e3d6000fd5b505050506040513d601f19601f82011682018060405250810190610a6c91906126bc565b610a7557600080fd5b600054341015610a8457600080fd5b600060405180606001604052803373ffffffffffffffffffffffffffffffffffffffff16815260200134815260200183151581525090506009600084815260200190815260200160002081908060018154018082558091505060019003906000526020600020906003020160009091909190915060008201518160000160006101000a81548173ffffffffffffffffffffffffffffffffffffffff021916908373ffffffffffffffffffffffffffffffffffffffff1602179055506020820151816001015560408201518160020160006101000a81548160ff021916908315150217905550505034600760008581526020019081526020016000206003016000828254610b9191906126e9565b92505081905550505050565b60015481565b60006007600083815260200190815260200160002060040160019054906101000a900460ff169050919050565b6000600254905090565b6060600060035467ffffffffffffffff811115610bfa57610bf9611ce5565b5b604051908082528060200260200182016040528015610c3357816020015b610c20611c75565b815260200190600190039081610c185790505b509050600080600190505b6002548111610ed257600115156007600083815260200190815260200160002060040160009054906101000a900460ff16151503610ebf57600760008281526020019081526020016000206040518060e0016040529081600082018054610ca4906123f8565b80601f0160208091040260200160405190810160405280929190818152602001828054610cd0906123f8565b8015610d1d5780601f10610cf257610100808354040283529160200191610d1d565b820191906000526020600020905b815481529060010190602001808311610d0057829003601f168201915b50505050508152602001600182018054610d36906123f8565b80601f0160208091040260200160405190810160405280929190818152602001828054610d62906123f8565b8015610daf5780601f10610d8457610100808354040283529160200191610daf565b820191906000526020600020905b815481529060010190602001808311610d9257829003601f168201915b50505050508152602001600282018054610dc8906123f8565b80601f0160208091040260200160405190810160405280929190818152602001828054610df4906123f8565b8015610e415780601f10610e1657610100808354040283529160200191610e41565b820191906000526020600020905b815481529060010190602001808311610e2457829003601f168201915b50505050508152602001600382015481526020016004820160009054906101000a900460ff161515151581526020016004820160019054906101000a900460ff16151515158152602001600582015481525050838380610ea090612381565b945081518110610eb357610eb26127bf565b5b60200260200101819052505b8080610eca90612381565b915050610c3e565b50819250505090565b60606000610ee883611347565b90506000606460326007600087815260200190815260200160002060030154610f11919061271d565b610f1b919061278e565b905060008060005b6009600088815260200190815260200160002080549050811015611042576000600960008981526020019081526020016000208281548110610f6857610f676127bf565b5b90600052602060002090600302016040518060600160405290816000820160009054906101000a900473ffffffffffffffffffffffffffffffffffffffff1673ffffffffffffffffffffffffffffffffffffffff1673ffffffffffffffffffffffffffffffffffffffff168152602001600182015481526020016002820160009054906101000a900460ff1615151515815250509050851515816040015115150361102e5780602001518461101d91906126e9565b9350828061102a90612381565b9350505b50808061103a90612381565b915050610f23565b5060008167ffffffffffffffff81111561105f5761105e611ce5565b5b60405190808252806020026020018201604052801561109857816020015b611085611c45565b81526020019060019003908161107d5790505b5090506000805b600960008a815260200190815260200160002080549050811080156110c357508382105b1561121c576000600960008b815260200190815260200160002082815481106110ef576110ee6127bf565b5b90600052602060002090600302016040518060600160405290816000820160009054906101000a900473ffffffffffffffffffffffffffffffffffffffff1673ffffffffffffffffffffffffffffffffffffffff1673ffffffffffffffffffffffffffffffffffffffff168152602001600182015481526020016002820160009054906101000a900460ff16151515158152505090508715158160400151151503611208576040518060400160405280826000015173ffffffffffffffffffffffffffffffffffffffff1681526020018783602001518a6111d0919061271d565b6111da919061278e565b8152508484806111e990612381565b9550815181106111fc576111fb6127bf565b5b60200260200101819052505b50808061121490612381565b91505061109f565b50819650505050505050919050565b60606000600167ffffffffffffffff81111561124a57611249611ce5565b5b60405190808252806020026020018201604052801561128357816020015b611270611c45565b8152602001906001900390816112685790505b50905060006103e8600560076000878152602001908152602001600020600301546112ae919061271d565b6112b8919061278e565b905060006008600086815260200190815260200160002060009054906101000a900473ffffffffffffffffffffffffffffffffffffffff16905060405180604001604052808273ffffffffffffffffffffffffffffffffffffffff1681526020018381525083600081518110611331576113306127bf565b5b6020026020010181905250829350505050919050565b600080600090506000805b6009600086815260200190815260200160002080549050811015611473576000600960008781526020019081526020016000208281548110611397576113966127bf565b5b90600052602060002090600302016040518060600160405290816000820160009054906101000a900473ffffffffffffffffffffffffffffffffffffffff1673ffffffffffffffffffffffffffffffffffffffff1673ffffffffffffffffffffffffffffffffffffffff168152602001600182015481526020016002820160009054906101000a900460ff161515151581525050905060001515816040015115150361145057838061144890612381565b94505061145f565b828061145b90612381565b9350505b50808061146b90612381565b915050611352565b5081811192505050919050565b60005481565b6008600082815260200190815260200160002060009054906101000a900473ffffffffffffffffffffffffffffffffffffffff1673ffffffffffffffffffffffffffffffffffffffff163373ffffffffffffffffffffffffffffffffffffffff1614611527576040517f08c379a000000000000000000000000000000000000000000000000000000000815260040161151e9061284b565b60405180910390fd5b600115156007600083815260200190815260200160002060040160009054906101000a900460ff16151514611591576040517f08c379a0000000000000000000000000000000000000000000000000000000008152600401611588906128b7565b60405180910390fd5b600061159c82610edb565b905060006115a9836106a2565b905060006115b68461122b565b6000815181106115c9576115c86127bf565b5b6020026020010151905060006007600086815260200190815260200160002060030154905060008060005b86518110156116da576000878281518110611612576116116127bf565b5b6020026020010151600001519050878281518110611633576116326127bf565b5b60200260200101516020015193508073ffffffffffffffffffffffffffffffffffffffff166108fc859081150290604051600060405180830381858888f193505050509250826116b8576040517f08c379a00000000000000000000000000000000000000000000000000000000081526004016116af90612923565b60405180910390fd5b83856116c49190612943565b94505080806116d290612381565b9150506115f4565b5060005b85518110156117c45760008682815181106116fc576116fb6127bf565b5b602002602001015160000151905086828151811061171d5761171c6127bf565b5b60200260200101516020015193508073ffffffffffffffffffffffffffffffffffffffff166108fc859081150290604051600060405180830381858888f193505050509250826117a2576040517f08c379a0000000000000000000000000000000000000000000000000000000008152600401611799906129c3565b60405180910390fd5b83856117ae9190612943565b94505080806117bc90612381565b9150506116de565b50600084600001519050846020015192508073ffffffffffffffffffffffffffffffffffffffff166108fc849081150290604051600060405180830381858888f1935050505091508161184c576040517f08c379a000000000000000000000000000000000000000000000000000000000815260040161184390612a2f565b60405180910390fd5b82846118589190612943565b9350600660009054906101000a900473ffffffffffffffffffffffffffffffffffffffff1673ffffffffffffffffffffffffffffffffffffffff166108fc859081150290604051600060405180830381858888f193505050509150816118f3576040517f08c379a00000000000000000000000000000000000000000000000000000000081526004016118ea90612ac1565b60405180910390fd5b6000600760008a815260200190815260200160002060040160006101000a81548160ff0219169083151502179055506003600081548092919061193590612ae1565b91905055505050505050505050565b6060600060035467ffffffffffffffff81111561196457611963611ce5565b5b60405190808252806020026020018201604052801561199d57816020015b61198a611c75565b8152602001906001900390816119825790505b509050600080600190505b6002548111611c3c57600015156007600083815260200190815260200160002060040160009054906101000a900460ff16151503611c2957600760008281526020019081526020016000206040518060e0016040529081600082018054611a0e906123f8565b80601f0160208091040260200160405190810160405280929190818152602001828054611a3a906123f8565b8015611a875780601f10611a5c57610100808354040283529160200191611a87565b820191906000526020600020905b815481529060010190602001808311611a6a57829003601f168201915b50505050508152602001600182018054611aa0906123f8565b80601f0160208091040260200160405190810160405280929190818152602001828054611acc906123f8565b8015611b195780601f10611aee57610100808354040283529160200191611b19565b820191906000526020600020905b815481529060010190602001808311611afc57829003601f168201915b50505050508152602001600282018054611b32906123f8565b80601f0160208091040260200160405190810160405280929190818152602001828054611b5e906123f8565b8015611bab5780601f10611b8057610100808354040283529160200191611bab565b820191906000526020600020905b815481529060010190602001808311611b8e57829003601f168201915b50505050508152602001600382015481526020016004820160009054906101000a900460ff161515151581526020016004820160019054906101000a900460ff16151515158152602001600582015481525050838380611c0a90612381565b945081518110611c1d57611c1c6127bf565b5b60200260200101819052505b8080611c3490612381565b9150506119a8565b50819250505090565b6040518060400160405280600073ffffffffffffffffffffffffffffffffffffffff168152602001600081525090565b6040518060e0016040528060608152602001606081526020016060815260200160008152602001600015158152602001600015158152602001600081525090565b6000604051905090565b600080fd5b600080fd5b600080fd5b600080fd5b6000601f19601f8301169050919050565b7f4e487b7100000000000000000000000000000000000000000000000000000000600052604160045260246000fd5b611d1d82611cd4565b810181811067ffffffffffffffff82111715611d3c57611d3b611ce5565b5b80604052505050565b6000611d4f611cb6565b9050611d5b8282611d14565b919050565b600067ffffffffffffffff821115611d7b57611d7a611ce5565b5b611d8482611cd4565b9050602081019050919050565b82818337600083830152505050565b6000611db3611dae84611d60565b611d45565b905082815260208101848484011115611dcf57611dce611ccf565b5b611dda848285611d91565b509392505050565b600082601f830112611df757611df6611cca565b5b8135611e07848260208601611da0565b91505092915050565b600080600060608486031215611e2957611e28611cc0565b5b600084013567ffffffffffffffff811115611e4757611e46611cc5565b5b611e5386828701611de2565b935050602084013567ffffffffffffffff811115611e7457611e73611cc5565b5b611e8086828701611de2565b925050604084013567ffffffffffffffff811115611ea157611ea0611cc5565b5b611ead86828701611de2565b9150509250925092565b6000819050919050565b611eca81611eb7565b82525050565b6000602082019050611ee56000830184611ec1565b92915050565b611ef481611eb7565b8114611eff57600080fd5b50565b600081359050611f1181611eeb565b92915050565b60008115159050919050565b611f2c81611f17565b8114611f3757600080fd5b50565b600081359050611f4981611f23565b92915050565b60008060408385031215611f6657611f65611cc0565b5b6000611f7485828601611f02565b9250506020611f8585828601611f3a565b9150509250929050565b600060208284031215611fa557611fa4611cc0565b5b6000611fb384828501611f02565b91505092915050565b600081519050919050565b600082825260208201905092915050565b6000819050602082019050919050565b600073ffffffffffffffffffffffffffffffffffffffff82169050919050565b600061201382611fe8565b9050919050565b61202381612008565b82525050565b61203281611eb7565b82525050565b60408201600082015161204e600085018261201a565b5060208201516120616020850182612029565b50505050565b60006120738383612038565b60408301905092915050565b6000602082019050919050565b600061209782611fbc565b6120a18185611fc7565b93506120ac83611fd8565b8060005b838110156120dd5781516120c48882612067565b97506120cf8361207f565b9250506001810190506120b0565b5085935050505092915050565b60006020820190508181036000830152612104818461208c565b905092915050565b61211581611f17565b82525050565b6000602082019050612130600083018461210c565b92915050565b600081519050919050565b600082825260208201905092915050565b6000819050602082019050919050565b600081519050919050565b600082825260208201905092915050565b60005b8381101561219c578082015181840152602081019050612181565b60008484015250505050565b60006121b382612162565b6121bd818561216d565b93506121cd81856020860161217e565b6121d681611cd4565b840191505092915050565b6121ea81611f17565b82525050565b600060e083016000830151848203600086015261220d82826121a8565b9150506020830151848203602086015261222782826121a8565b9150506040830151848203604086015261224182826121a8565b91505060608301516122566060860182612029565b50608083015161226960808601826121e1565b5060a083015161227c60a08601826121e1565b5060c083015161228f60c0860182612029565b508091505092915050565b60006122a683836121f0565b905092915050565b6000602082019050919050565b60006122c682612136565b6122d08185612141565b9350836020820285016122e285612152565b8060005b8581101561231e57848403895281516122ff858261229a565b945061230a836122ae565b925060208a019950506001810190506122e6565b50829750879550505050505092915050565b6000602082019050818103600083015261234a81846122bb565b905092915050565b7f4e487b7100000000000000000000000000000000000000000000000000000000600052601160045260246000fd5b600061238c82611eb7565b91507fffffffffffffffffffffffffffffffffffffffffffffffffffffffffffffffff82036123be576123bd612352565b5b600182019050919050565b7f4e487b7100000000000000000000000000000000000000000000000000000000600052602260045260246000fd5b6000600282049050600182168061241057607f821691505b602082108103612423576124226123c9565b5b50919050565b60008190508160005260206000209050919050565b60006020601f8301049050919050565b600082821b905092915050565b60006008830261248b7fffffffffffffffffffffffffffffffffffffffffffffffffffffffffffffffff8261244e565b612495868361244e565b95508019841693508086168417925050509392505050565b6000819050919050565b60006124d26124cd6124c884611eb7565b6124ad565b611eb7565b9050919050565b6000819050919050565b6124ec836124b7565b6125006124f8826124d9565b84845461245b565b825550505050565b600090565b612515612508565b6125208184846124e3565b505050565b5b818110156125445761253960008261250d565b600181019050612526565b5050565b601f8211156125895761255a81612429565b6125638461243e565b81016020851015612572578190505b61258661257e8561243e565b830182612525565b50505b505050565b600082821c905092915050565b60006125ac6000198460080261258e565b1980831691505092915050565b60006125c5838361259b565b9150826002028217905092915050565b6125de82612162565b67ffffffffffffffff8111156125f7576125f6611ce5565b5b61260182546123f8565b61260c828285612548565b600060209050601f83116001811461263f576000841561262d578287015190505b61263785826125b9565b86555061269f565b601f19841661264d86612429565b60005b8281101561267557848901518255600182019150602085019450602081019050612650565b86831015612692578489015161268e601f89168261259b565b8355505b6001600288020188555050505b505050505050565b6000815190506126b681611f23565b92915050565b6000602082840312156126d2576126d1611cc0565b5b60006126e0848285016126a7565b91505092915050565b60006126f482611eb7565b91506126ff83611eb7565b925082820190508082111561271757612716612352565b5b92915050565b600061272882611eb7565b915061273383611eb7565b925082820261274181611eb7565b9150828204841483151761275857612757612352565b5b5092915050565b7f4e487b7100000000000000000000000000000000000000000000000000000000600052601260045260246000fd5b600061279982611eb7565b91506127a483611eb7565b9250826127b4576127b361275f565b5b828204905092915050565b7f4e487b7100000000000000000000000000000000000000000000000000000000600052603260045260246000fd5b600082825260208201905092915050565b7f6f776e6572000000000000000000000000000000000000000000000000000000600082015250565b60006128356005836127ee565b9150612840826127ff565b602082019050919050565b6000602082019050818103600083015261286481612828565b9050919050565b7f636c6f7365640000000000000000000000000000000000000000000000000000600082015250565b60006128a16006836127ee565b91506128ac8261286b565b602082019050919050565b600060208201905081810360008301526128d081612894565b9050919050565b7f7472616e73616374696f6e20746f20626574746572206661696c656400000000600082015250565b600061290d601c836127ee565b9150612918826128d7565b602082019050919050565b6000602082019050818103600083015261293c81612900565b9050919050565b600061294e82611eb7565b915061295983611eb7565b925082820390508181111561297157612970612352565b5b92915050565b7f7472616e73636174696f6e20746f2076616c696461746f72206661696c656400600082015250565b60006129ad601f836127ee565b91506129b882612977565b602082019050919050565b600060208201905081810360008301526129dc816129a0565b9050919050565b7f7472616e73616374696f6e20746f206f776e6572206661696c65640000000000600082015250565b6000612a19601b836127ee565b9150612a24826129e3565b602082019050919050565b60006020820190508181036000830152612a4881612a0c565b9050919050565b7f7472616e73616374696f6e20746f20636f6e7472616374206f776e657220666160008201527f696c656400000000000000000000000000000000000000000000000000000000602082015250565b6000612aab6024836127ee565b9150612ab682612a4f565b604082019050919050565b60006020820190508181036000830152612ada81612a9e565b9050919050565b6000612aec82611eb7565b915060008203612aff57612afe612352565b5b60018203905091905056fea26469706673582212201ceca10903572f6b445631ca775bf3a32b97cd9a5d16471aca063be2b4fa6cae64736f6c63430008130033",
  "linkReferences": {},
  "deployedLinkReferences": {}
}